S01B0000736D6172745F6E6F74655F6672656572746F732E7372656304
S113280000000204B1B20200677D0000AB95000035
S1132810C3A2000093A3000027B40000C03FF8FB4C
S1132820FFA80A000000000000000000A5CC000082
S113283093BD0000000000004DCC0000878F000015
S113284089B7020091B7020099B70200A1B702004C
S113285000000000A9B70200B9940000B1B702005B
S1132860B9B70200B5940000C1B70200C9B70200AD
S1132870D1B70200D9B70200E1B70200E9B70200FC
S1132880F1B70200F9B7020001B8020009B802006A
S113289011B8020019B80200ED85020021B8020047
S11328A029B8020031B8020039B8020041B8020068
S11328B049B8020051B8020059B8020061B80200D8
S11328C069B8020071B8020079B8020081B8020048
S11328D089B802000000000091B802000000000066
S11328E099B8020000000000A1B80200A9B80200D3
S11328F0B1B8020000000000000000000000000069
S113290000000000000000000000000021B70200E9
S113291000000000FFFFFFFF00000000FFFFFFFFBB
S1132920FFFFFFFF4178007807E0C178827842EA30
S113293001224178007841EA022140EA01207047EF
S11329400170090A417070470170090A4170090A4F
S11329508170090AC17070472AB111F8013B00F86F
S1132960013B521EF9D17047521E00F8011BFBD1E6
S1132970704710B5034613F8014B11F8010B201AE8
S1132980521E01D00028F6D010BD38B504460025EB
S1132990E07890B1226B00F012F868B9206B616A9C
S11329A0E269E570411A914207D2A178022904D163
S11329B0121800F004F800E00125284632BD6078C2
S11329C0012304F1340101F0ABBF70B504460D4698
S11329D0206B0026854210D02046FFF7D6FF060064
S11329E00BD1607801232A4604F1340101F083FFFE
S11329F010B14FF0FF3501262563304670BD38B560
S1132A000446FFF7C2FF050032D12078032804BF33
S1132A102179012925D100F0E8F94AF6552104F27B
S1132A203220FFF78DFFDFF8501A04F13400FFF76E
S1132A308BFFDFF8481A04F50670FFF785FF21695C
S1132A4004F50770FFF780FFE16804F50870FFF7ED
S1132A507BFF226A6078521C2263FFF7B1FF0020DB
S1132A60207100226078002101F076FF00B1012579
S1132A70284632BD8269891E921E914201D30020EC
S1132A807047C26A408901FB0021084670472DE95E
S1132A90F0410C460568022C4AD3A869844247D207
S1132AA0287801284FF0FF3604D041D303282FD0D3
S1132AB01FD33DE0696A04EB540700F0D0FA002804
S1132AC037D105F13400C7F30B017F1C10F80180E6
S1132AD0696A00F0C4FA60BB05F13400C7F30B0760
S1132AE0E107C05D48EA002654BFC6F30B06360969
S1132AF01FE0696A01EBD42100F0B3FAC8B905F10B
S1132B003400640500EB1450FFF70CFF064610E098
S1132B10696A01EB942100F0A4FA50B905F134007C
S1132B20A40500EB1450FFF700FF20F0704600E00E
S1132B3001263046BDE8F0812DE9F0410E46022E13
S1132B40054614464FF002086AD3A869864267D244
S1132B502878012804D063D3032846D034D35FE017
S1132B60696A06EB560700F07AFA5FEA000857D163
S1132B7005F13400C7F30B0108447F1CF10743BF80
S1132B80017801F00F0141EA04112146017001208E
S1132B90E8702846696A01EB1731FFF716FF5FEA10
S1132BA000083DD105F13400C7F30B07C019F10744
S1132BB048BF240906D40178240A01F0F00104F086
S1132BC00F040C43047029E0696A01EBD62100F07C
S1132BD048FA5FEA000823D105F134007605A1B272
S1132BE000EB1650FFF7ACFE18E0696A01EB962182
S1132BF000F037FA5FEA000812D105F13400B60597
S1132C0000EB16563046FFF790FE24F0704400F0B7
S1132C10704040EA04013046FFF796FE0120E87058
S1132C204046BDE8F081F8B505460F462E68012FF1
S1132C3011462CD9B069874229D231B14FF0FF3205
S1132C403046FFF779FF010020D139462846FFF7C7
S1132C501EFF040019D0012C19D014F1010F18D053
S1132C60002239463046FFF767FF01000ED1B069F4
S1132C703169821E914205D2491C3161317941F09A
S1132C800101317127468742DFD30020F2BD0220C3
S1132C90F2BD0120F2BD2DE9F04180460D00D8F8C7
S1132CA0004006D1E76817B1A06987420ED3012717
S1132CB00CE0FFF7ECFE012898BF01203ED910F18B
S1132CC0010F3BD0A169884238D32F46206968B3ED
S1132CD0AF4217D1A0697E1C864228BF0226314626
S1132CE04046FFF7D4FE012818BF10F1010F25D08C
S1132CF038B1E068012805D9A169884202D20746A3
S1132D0000E0EEB93E46A069761C864202D3022654
S1132D10012F0BD931464046FFF7B9FE80B1012897
S1132D2018BF10F1010F09D0BE42ECD1002005E01C
S1132D3001280CBF4FF0FF3601263046BDE8F08174
S1132D404FF0FF3231462046FFF7F6FE28B935B181
S1132D50324629462046FFF7EFFE0028E8D1A16954
S1132D602069E660891E814224BF401E20612079CB
S1132D7040F001002071E0E7C26A00684389090B52
S1132D80121DB1FBF3F003E0884206D3401A083267
S1132D9011680029F8D1002070475168081870475D
S1132DA070B504460D46FFF7F0FDB8B92946204634
S1132DB0FFF760FE0546256300F017F800266089DA
S1132DC086420DD260780123721904F1340101F0B6
S1132DD0A7FD002808BF761CF1D001E0012070BDDA
S1132DE060898642FAD1002070BD4FF480520021E0
S1132DF004F13400B8E52DE9FC4105460E462F6880
S1132E00B6F5001F3BD216F01F0F38D1AC686E61C7
S1132E101CB93878032801DBBC6A2CB939897009DC
S1132E2088422CD2B86A25E0B7F80A8006E0022C62
S1132E3025D3B869844222D2A6EB0836B6EB083F04
S1132E40214614D32846FFF722FE044614F1010F4D
S1132E50EDD1012009E000EB1630E861C6F30B0662
S1132E60B81900F1340129620020BDE8F681384622
S1132E70FFF700FEE861AC61E8690028EBD10220AD
S1132E80F3E72DE9F0410646884674693768F0692E
S1132E90203418B3B4F5001F20D221053CD1401CC6
S1132EA0B169F06121B939896009884234D313E0EA
S1132EB07889401E10EA143F2ED13046FFF7E7FD13
S1132EC00546012D16D915F1010F1DD0B8698542AB
S1132ED01CD3B8F1000F03D10020F061042023E0DB
S1132EE0B1693046FFF7D7FE050008BF07201BD0A5
S1132EF0012D01D1022017E015F1010F04D029465C
S1132F003846FFF74DFF08B101200DE0B5612946B1
S1132F103846FFF7AFFDF0617461C4F30B04381950
S1132F2000F1340131620020BDE8F08170B504463F
S1132F300D4605F11A00FFF7F5FC21780329064632
S1132F4005D105F11400FFF7EDFC46EA00463046D2
S1132F5070BD70B504460D461646B1B205F11A00AF
S1132F60FFF7EEFC2178032905D1310C05F114009B
S1132F70BDE87040E4E470BD70B504460D462668B3
S1132F800422E169F1B13046FFF71FFD020019D1B7
S1132F90216A0878E0B1C97AE52801F03F011CBF35
S1132FA02E280F29A17107D021F02001082914BF70
S1132FB000200120A84209D000212046FFF761FF2C
S1132FC00200DED0100001D00020E061104670BD88
S1132FD00422F9E7F8B5054600212C68FFF70BFF3A
S1132FE0070013D1002600F029F807000ED1286A43
S1132FF00078E5281CBF0028002602D1761C012E8B
S113300007D0012100F0E4F90700ECD0042F08BF39
S11330100727380010D100F011F807000CD1286AF6
S113302020220021FFF7A0FC286A0B2205F12401CD
S1133030FFF792FC0120E0703846F2BDE9692046B2
S1133040C3E438B504462568E16900F00AF80100D4
S113305004D1226AE52111700121E97032BD01EB2E
S113306017312846B1E470B504460D460020687255
S1133070E06998B30020002105F10906226A525C38
S1133080491C202A0BD0052A08BFE522092902D1B0
S11330902E233354401C05F109031A54401C0B29F8
S11330A0ECD305F1090200211154206AC17A297276
S11330B0216A01F11C00FFF738FC2860216A01F144
S11330C01600FFF72FFCE880206A1830FFF72AFC6F
S11330D0A880206A1230FFF725FCE88270BD0168E1
S11330E04A1C02600878A0F161011A2938BF20380F
S11330F0802804D30FF27011084410F8800C704734
S1133100F2B582B0064615461F462846451E58B3FA
S113311002A8FFF7E4FF0028F7D123E02A282FD0E4
S11331206846FFF7DCFF044601A8FFF7D8FF07460F
S1133130BC4210D104BB0120FEBD009800783F289A
S113314018BF2A281ED001990098FFF7D9FF00283C
S1133150F1D10198077802A8FFF7C1FF002D18BF2D
S1133160002F06D10020FEBD30783D4608B9002D61
S1133170E1D1029800960190009908783F28CDD1BA
S1133180002300220098401C009010F8011D3F29E4
S11331900CBF521C0123D0E7F8B50C4600F12406FD
S11331A0256801F0E0F828780021002208272E285D
S11331B019D103E0032A4BD27054491CA85C521C59
S11331C02E28F7D02F2818BF5C2801D020283FDCF8
S11331D0A91820282160CCBF2020242031E00B2F07
S11331E036D008210B27AB5C521C202B2CDD2F2B57
S11331F018BF5C2B06D1A85C2F2814BF5C28521C76
S1133200F9D021E02E2BEAD0B94221D27F2B04DD64
S11332100FF2540003F07F03C35C0FF2CC0E9EF850
S11332200000B8B1984218BF0EF1010EF7D111E0B9
S11332303078E52804BF05213170202BD4BF042049
S11332400020F0720020F2BDA81800292060EFD100
S11332500620F2BD0028FBD1A3F161001A2838BF73
S1133260203B7354491CBEE7809A45418E418F80B0
S11332704545454949498E8F9092924F994F5555EE
S113328059999A9B9C9D9E9F41494F55A5A5A6A7D8
S1133290A8A9AAABACADAEAFB0B1B2B3B4B5B6B732
S11332A0B8B9BABBBCBDBEBFC0C1C2C3C4C5C6C722
S11332B0C8C9CACBCCCDCECFD0D1D2D3D4D5D6D712
S11332C0D8D9DADBDCDDDEDFE0E1E2E3E4E5E6E702
S11332D0E8E9EAEBECEDEEEFF0F1F2F3F4F5F6F7F2
S11332E0F8F9FAFBFCFDFEFF222A2B2C3A3B3C3D6D
S11332F03E3F5B5D7C7F0000F3B5054681B00878F6
S11333002E682F2818BF5C2804D0706909E0029841
S1133310411C0291029800782F2818BF5C28F6D02F
S11333200020A8600298017820290FD2802285F815
S11333302F2000F0BFFE044647E06869C0F30B008D
S1133340311834313046FFF7F1FDA86002A9284650
S1133350FFF722FF040038D12F6800F0ABFE040011
S11333601CD1E9693846FFF730FB040016D12B6AFB
S1133370187890B1D97A01F03F01A971D87A010780
S113338006D40B2205F124011846FFF7F2FA28B1FE
S113339000F01DF80400E4D000E0042495F82F1098
S11333A001F0040064B1042C0FD1890606D500286D
S11333B0CCD0802085F82F00002406E028B903E053
S11333C018B9A879C106B8D405242046FEBD002149
S11333D0284656E530B502464FF0FF3011680B0021
S11333E002D130BD3A2C05D013F8014B212CF9D26F
S11333F03A2C0DD10C78A4F130050A2D0BD2891C7E
S1133400994208D1303C012C05DA2046136030BDC6
S1133410DFF8B808007830BD10B504460020E0702D
S11334204FF0FF302063FFF70AFE08B1042010BDFF
S113343004F23220FFF776FA4AF65521884201D089
S1133440032010BD94F83400E9281CBFEB28E828B9
S113345010D10322A2A104F16A00FFF78AFA38B15D
S113346005220FF21C0104F18600FFF782FA08B965
S1133470002010BD022010BD5252614172724161A0
S113348046415433320000002DE9FF410E4600212D
S113349031601446FFF79EFF070048BF0B2007D496
S11334A0DFF82C8808F1040050F827500DB90C20DF
S11334B012E1356004F0FE04287848B1687801F020
S11334C015FAC10704D40CB140070ED4002003E15F
S11334D0002028706F70687801F009FAC10748BFAE
S11334E0032003D41CB1400701D50A20F4E00021D5
S11334F02846FFF791FF002602281ED1002405EB81
S1133500041101F5F971087918B101F10800FFF708
S11335100CFA4DF82400641C042CF0D35DF826400A
S113352024B121462846FFF777FF00E00320022854
S113353002DB761C042EF1D32646042808BF0120A2
S1133540D4D0022880F2888005F13F00FFF7EAF921
S1133550B0F5805F12D105F14A00FFF7E3F90400EA
S113356004D105F15800FFF7E0F9044605F14100E4
S1133570EC61C178A970012918BF02296CD14C43B0
S113358000786881010067D0411E084264D105F1CA
S11335904500FFF7C7F910F07F0F28815CD105F1D2
S11335A04700FFF7BFF9070004D105F15400FFF706
S11335B0BCF9074605F14200FFF7B4F900284BD0E7
S11335C02989231803EBD1139F4245D36A89FF1A33
S11335D0B7FBF2F2002A3FD00027DFF8F8C66245B5
S11335E038BF03274FF6F67C624538BF022740F602
S11335F0F67C624538BF012700D36FB3921CAA61E1
S11336002E6280199B19032F6862EB6210D105F1B9
S11336105E00FFF787F9002804BF288900281BD122
S113362005F16000FFF781F90446A86980000CE009
S113363091B1686A2418A869022F0FBF400000EBFB
S1133640400100F0010000EB5100E969AC6200F6B2
S1133650FF70B1EB103F01D20D203DE04FF0FF3081
S11336602861E8608020032F28712CD105F16400C3
S1133670FFF758F9012826D1711CFFF7F2FC10BBA3
S1133680287105F23220FFF74DF94AF65521884298
S113369019D105F13400FFF748F9DFF83C168842E8
S11336A011D105F50670FFF740F9DFF830168842AE
S11336B009D105F50770FFF738F9286105F5087099
S11336C0FFF733F9E8602F70B8F80000401CA8F841
S11336D00000E8800020686104B0BDE8F0810000CB
S11336E04641540070B5044609260D46002C1CBF03
S11336F0216800290DD0087858B1A288C888824270
S113370007D1487801F0F2F8C10702D420680026F6
S113371000E000202860304670BD13B582B0144626
S113372000916846FFF756FE002848BF0B2015D4C9
S1133730DFF89C1501EB8001486808B10022027093
S1133740029808B100220270029848600CB9002067
S113375004E0002202A903A8FFF796FE04B010BDFE
S11337602DE9F34105008EB008BF092000F0D48094
S113377002F03F073A4600F0D5FA04004ED100F0BB
S1133780D5FA040004D19DF83300010648BF06248D
S113379017F01C0F00F09A80200000F08D80042C9C
S11337A03CD101A8FFF716FC0446200047F00807A7
S11337B033D1380737D500F0B2F8064601F0E1F806
S11337C0014609980E30FFF7BFF809982021C1720D
S11337D0002209990098FFF7BCFB099800211C30CE
S11337E0FFF7B2F8099800211230FFF7A9F8009802
S11337F00121C1709EB10098D0F83080002231467A
S113380001A8FFF710FA040007D100984146FFF71A
S1133810DCF804460098761EC660200079D138078B
S113382048BF47F040070098016B69620998A86295
S1133830099E00983146FFF779FBA86006F11C0049
S1133840FFF773F8E86006F11200FFF76BF82882BF
S11338504FF480520020E862009828600098C188E4
S1133860A980002068752862A8612F75002105F1E0
S11338703000FFF779F8B8064DD5EE68002E4AD02F
S1133880AE6100984789A9683F03B7420CD2284625
S1133890FFF7FDF80146022926D311F1010F26D0C6
S11338A0F61B2000F1D020E03005E96133D000F0B0
S11338B0B3F908BB02242CE09DF80A0010F0110FA4
S11338C010D178077FF575AF082422E02000A4D139
S11338D09DF80A00C10648BF04241AD4B9079ED52E
S11338E0C0079CD5072414E00224E96111E04FF0DD
S11338F0FF300124E8610CE000EB16302862024638
S113390000984078012305F1300100F0F4FF10B174
S1133910012400202860204610B0BDE8F0810999F8
S11339200098FFF703BB2DE9FC47064699460020A3
S1133930C9F800008A46154669463046FFF7D2FEAC
S1133940010001D1707D010040F08B80307DC10702
S113395058BF072040F18580F068B469041BAC426D
S11339603ED92C463CE0F1693046FFF790F8022836
S113397079D310F1010F79D0F061F16900F04CF9BD
S1133980010070D0270B05EB00083BD0009840895C
S11339907919884238BF471B009840783B46424615
S11339A0514600F0A8FF002860D1307D01060CD5F7
S11339B0306AA0EB0803BB4207D24FF4805206F1F1
S11339C030010AEB0330FEF7C7FF3F03D9F80000CC
S11339D03818C9F80000E41BB069BA443F18B7614D
S11339E0002C3DD0B169080529D100F00EF9C4D1ED
S11339F009B9B068BBE7F06A0028B4D03046FFF7D5
S1133A00BBF9B4E7326A424517D0307D01060BD5C5
S1133A1000984078012306F1300100F081FF28BBB3
S1133A20307D00F07F0030750123009840784246D5
S1133A3006F1300100F05FFFC0B9C6F82080B1691B
S1133A40C1F30B01C1F580502746844288BF074665
S1133A5006F1300001443A465046FEF77DFFB5E7D3
S1133A600020BDE8F68702207075FAE70120FBE725
S1133A702DE9F84F074698460020C8F80000144680
S1133A8038468B466946FFF72DFE0100D94601D121
S1133A90787D010040F0B280387D810758BF07204F
S1133AA040F1AC80B869211881425ED24FF0FF31F9
S1133AB00C1A5AE0F9693846FFF7EDF8002855D09A
S1133AC001281CD010F1010F00F09D80B968F86145
S1133AD001B9B860387D01060DD500983A6A40787E
S1133AE0012307F1300100F01BFF00281BD1387DB2
S1133AF000F07F003875F96900F08EF8002800F0B6
S1133B007F80260B05EB000A43D000984089711989
S1133B10884238BF461B009840783346524649468F
S1133B2000F0FEFE00286ED1386AA0EB0A00B04215
S1133B300BD209EB00314FF4805207F13000FEF74D
S1133B400BFF387D00F07F0038753603A41BD8F8CE
S1133B5000003018C8F80000B144B8693618BE61D6
S1133B60F868B04238BF3046F860002C38D0B969E4
S1133B70080520D100F049F8ACD119B9B86800287B
S1133B809CD198E7F86A002894D03846FFF7F4F8F7
S1133B9094E7386A50450CD0B869F968884208D26D
S1133BA0009840780123524607F1300100F0A3FE4B
S1133BB048BBC7F820A0BB69C3F30B03C3F580500F
S1133BC02646844288BF064607F1300032464946FD
S1133BD01844FEF7C1FE387D40F080003875B5E723
S1133BE03F4931B1D8F80020388A594601F048FBE2
S1133BF03882387D40F0400038750020BDE8F28FEF
S1133C0002207875FAE70120FBE7009845896D1ECC
S1133C1015EA1135704701460098FEF72BBF7CB5B5
S1133C2000F026FA010033D1217D4A0630D508067A
S1133C3006D500F033F808B1012076BD00F0DCF9B8
S1133C4000F09FFE0546616A0098FEF7BEFE010083
S1133C501ED1A66AF07A40F02000F0723146A268C4
S1133C602068FFF776F9E16806F11C00FEF76CFEA8
S1133C7000F00FF8218A06F11200FEF761FE00F051
S1133C8064FB0098FEF7BBFE217D01F0BF012175A6
S1133C9076BD294606F11600FEF756BE0098226A44
S1133CA04078012304F1300100F03ABE1CB504460B
S1133CB0FFF7B5FF010007D169462046FFF712FD63
S1133CC0010004BF0021216016BD0000B7C5010436
S1133CD048EA0004F6FFFF0F5252614172724161DB
S1133CE08152000011B58FB0002200F01BF80400CF
S1133CF015D100F01BF804000ED19DF83300010625
S1133D0048BF039805D49DF80A00C10606D5FFF7FD
S1133D1006FE0099486102E0042C00D105242046E7
S1133D2010B010BD69460FA8FFF7AEBB00980F99FD
S1133D30019001A8FFF7E0BA2DE9F14195B088465A
S1133D4006460022694615A8FFF79EFB04005DD1D4
S1133D500098079047464069099009E0491E159B61
S1133D60505CD8557F1E0029F8D115992F20C855CD
S1133D70099D002D3DD0202107A8FFF73CF8040041
S1133D8036D10E990098FEF720FE040030D10F9929
S1133D90FFF7C6FD0990002107A8FFF72CF80400DF
S1133DA026D1002107A8FFF7E7F804000AD10F99EC
S1133DB0FFF7B6FD854208D0002107A8FFF761F898
S1133DC00400EED0042C08D094B901A907A8FFF789
S1133DD04AF900210DF10D0202E0022416E0194611
S1133DE0505C4B1C0028FAD19F42BBD211240DE039
S1133DF064B9474503D115997F1E2F20C8551598DE
S1133E00C05D06F8010B7F1C4745F8D300203070D5
S1133E1016B02046BDE8F0812DE9F84F0D4600F0BC
S1133E2027F95FEA000808BF94F815805FEA0800E4
S1133E3032D1E06A002863D015F1010F2DD1074675
S1133E40A06857F8049B4FF0020AE0B183460025AE
S1133E500AF1020A064601462046FEF718FE6D1CCA
S1133E60012840F29E8010F1010F71D0761CB042FF
S1133E70F0D0D14503D33D60C7F804B008370099AA
S1133E808A699042E2D3E06AC0F800A0D14532BF0B
S1133E904FF0110800203860ABE0E668AE4288BFFE
S1133EA02E46002EA661F7D0761E31462046FEF738
S1133EB063FFE061FFF7AFFE050072D0009841890F
S1133EC0A069491E01EA16314D1901051CBF226A79
S1133ED0954214D0207D010606D50098FFF7E0FE38
S1133EE000280AD100F088F80123009840782A4677
S1133EF004F1300100F0FFFC002876D1256278E05F
S1133F00E068A84203D2217D8A0758BF0546A0690C
S1133F100026002DA66148D000994F893F0368B15F
S1133F20401E6A1EB0FBF7F1B2FBF7F28A4205D3DA
S1133F30791E8843A0612D1AE0690CE0A06848B995
S1133F4000212046FEF7A7FE01282AD010F1010F18
S1133F504BD0A060E06160B927E0FEF798FD10F156
S1133F60010F42D001281CD900998A69904218D2C5
S1133F70E061AF420DD2A1697918A161ED1B217DE9
S1133F808A0701462046E8D5FEF785FE0028E6D1DB
S1133F900025A1696918A161290506D0FFF73BFE38
S1133FA008B9022022E000EB1536A069E1688142DD
S1133FB004D2217DE06041F04001217500051CBF61
S1133FC0226A964215D0207D010605D50098FFF798
S1133FD067FE50B900F010F801230098407832468B
S1133FE004F1300100F087FC10B10120607501E09C
S1133FF026624046BDE8F28F207D00F07F002075E8
S1134000704713B5040001D1092016BD002269468A
S113401001A8FFF739FA01001DD10098206020465D
S11340200199FFF769F9010011D194F82F000106F5
S113403006D4A079C1060CD5216AFFF771FCA060F3
S11340400098C188A18020460021FEF7D4FE0428F0
S113405001D1052001E0010001D00021216016BD3D
S11340601CB500F005F8010004BF0021216016BD55
S113407004466946FFF736BB38B50C460546694623
S1134080FFF730FB010014D114B900F013F832BD6E
S113409000212846FEF770FF042801D0010008D152
S11340A021462846FEF7DFFFFFF791F9042808BFF1
S11340B0002032BD00212846FEF79DBE70B505469E
S11340C00C4621462846FFF7D7FF06000BD154B112
S11340D0607A40B1286B0023002204F10901FFF744
S11340E00FF80028EDD0304670BD38B504460D46B3
S11340F023631146FFF785FF010004D129462046BA
S1134100BDE83440DAE732BD2DE9F14787B088468F
S113411014460022694607A8FFF7B6F907002DD117
S113412000982060009900988D690069AA1E824257
S113413028BFC8F8000021D20846002601780129CA
S113414022D102240190214601A8FEF7A0FC10F11F
S1134150010F09D0012815D000B9761C0098816997
S1134160641C8C42EFD300E00127C8F8006000987B
S113417006610099087940F001000871384608B0DA
S1134180BDE8F0870227F0E7D0F8249000240BE084
S11341903430FEF7CAFB000108BF5646241D6D1ECD
S11341A0C4F30B04E1D044B900984946FEF70DFC72
S11341B00746380009F10109D7D10098017802298E
S11341C006F1010A2044E3D13430FEF7ABFB00B919
S11341D05646A41CE3E731B59CB0022269461CA8EC
S11341E0FFF752F9010039D100981C99FFF7A0FD9F
S11341F0010033D19DF83300810601D4000601D5B6
S113420006202BE09DF80A50E80716D4FFF787FB39
S11342100446E80615D5009841698C420DD00E90ED
S1134220109400210EA8FEF7E6FD010016D100212E
S11342300EA8FEF7A1FE010001D107200EE004281C
S11342400CD101A8FEF7FDFE010002D11CB100F063
S113425085F8010002D10098FEF7D1FB1DB030BDF6
S113426071B58FB00222FFF75DFD06006AD1FFF73A
S11342705DFD060008BF082664D0042E62D19DF8B7
S11342803300810648BF06265CD4002101A8FEF74E
S113429002FD044600984189090304910CB90726DC
S11342A00CE0012C08BF022608D014F1010F08BF4E
S11342B0012603D00098FEF768FB064600F061FB78
S11342C00546300025D100982146FEF769FD060019
S11342D01FD1009800F1340600F045F82E2030700C
S11342E029461020F072FFF7D5FC00F032F82022A6
S11342F0314606F12000FEF72FFB2E2086F8210020
S113430006F12001039A0098FEF723FE00F01DF841
S113431001E0300003D101A8FEF75CFE0646300040
S11343200ED1099EFFF7B5FC00F013F81020F072CF
S113433001200099C8700098FEF761FB064601E071
S113434000F00CF8304610B070BD00990120C87020
S11343507047009822463146FEF7FBBD00222146F5
S113436001A8FEF760BC0B2220213046FEF7FCBA00
S11343702DE9F14F88B00E461446984608A8FFF779
S113438029F8010048BF0B206AD4DFF8C80450F8AC
S1134390210008B1002202708DF800109DF8000081
S11343A000F0A5FAC10748BF032059D4400748BF0D
S11343B00A2055D49DF8000002AA032100F0CCFA8B
S11343C050B9029840B1014648F20100814203D23B
S11343D00846491E084201D0012002902CB1A4F5E0
S11343E08051DFF87404814239D2601E044236D110
S11343F01298000B0590240B00030690B8F1000FEF
S11344001ABF0598002811202AD09DF8000001AA9F
S1134410012100F0A1FA002840F0F781310701984A
S11344208DF801604CBF4FF000094FF03F0948453B
S113443022BFA0EB09000190802856D3802C0ED80F
S113444016F0020040F6F67207D006F007010229C2
S113445000F08180F30740F17E80F30701D413203C
S1134460D4E1022503940399002940F0E781019ED9
S11344700FF25847360B4FF0000C012337F81C108D
S1134480002905D08E4224BF0CF1010C5B00F5D24B
S1134490D3E107EB47077F1C7F080125FF1C07F6C4
S11344A0FF773F0B4FF0010A04260AEB0901049140
S11344B07918DDF808C0029B71188C44ACF1010C2A
S11344C05B1E2CEA03035B1A032D05D1DDF810C033
S11344D09A446344049300E0DF19DDF80CC0019BA7
S11344E001EB0C11A1EB09018B4242D3A3EB0A01AE
S11344F0C91B891BB1FBFCFB032D4FF6F6711ED1C2
S11345008B451CD2ACBB5FEA5C0432D0032D039410
S1134510A9D10399002940F07D81019E0FF2BC3797
S1134520760C4FF0000C012337F81C10002905D03D
S11345308E4224BF0CF1010C5B00F5D269E1022D1F
S113454013D18B454FEA4C0308D31CB9412B38BF18
S11345501C46DBD320B103250394DAE7934504D248
S11345603CB91C46802C04D8D0E7012D03D19345D7
S113457001D30E204AE100F085F90B220FF2183125
S11345804046FEF7E9F94FF4805108F10B00FEF7BD
S1134590D7F9039888F80D001FFA8AF108F10E0084
S11345A0FEF7CEF9012088F81000032D0CBF00217E
S11345B04FF4007108F11100FEF7C2F90198B0F54B
S11345C0803F014605D289B208F11300FEF7B8F91D
S11345D003E008F12000FEF7B7F9F82088F8150089
S11345E03F2108F11800FEF7ABF9FF2108F11A008A
S11345F0FEF7A6F9494608F11C00FEF7A5F9032DBC
S113460008F1240423D100F0BCF9014608F1430069
S1134610FEF79AF939462046FEF796F9022108F189
S11346202C00FEF791F9012108F13000FEF788F91A
S1134630062108F13200FEF783F980202077132247
S11346402920A07708F147000FF2582114E000F068
S113465098F9014608F12700FEF776F9B9B208F196
S11346601600FEF76DF98020207013222920A07017
S113467008F12B000FF24021FEF76EF900F0FCF870
S113468000F0F6F84A4600F003F9002859D1032D4A
S113469029D100F0EDF809F1060200F0F9F800F074
S11346A0F1F86E494046FEF74FF96D4908F5F2708E
S11346B0FEF74AF9ABF1010108F5F470FEF744F98D
S11346C0022108F5F670FEF73FF900F0D5F800F086
S11346D0CFF809F1070200F0DBF800F0C9F809F19E
S11346E0010200F0D5F8069A00214046FEF73CF995
S11346F0049C032D6FF007010DD14046FEF724F909
S11347004FF0FF3108F10400FEF71EF96FF070411D
S113471008F1080003E0012D08BF52494046FEF7A6
S113472013F93846DDF814A027460446D346A245BB
S113473088BFA3469DF800005B463A4600F0A8F8FF
S1134740002862D100F09EF8B4EB0B005F440446ED
S1134750ECD19DF80000032D14BF3446039C06469B
S1134760D346A24588BFA3465B463A4641463046F7
S113477000F0D6F8002848D1B4EB0B005F4404469F
S1134780EED1032D08BF0C2409D00198B0F5803F69
S113479028BF062403D2022D0CBF042401249DF853
S11347A0010001072BD400F06DF800F065F808F55E
S11347B0DF71002008700C7101204870887043F686
S11347C0C1620020C87001984844B0FBF2F0FE2298
S11347D04A71C871820842F03F028A71494608F55D
S11347E0E370FEF7B1F8019908F5E570FEF7ACF84F
S11347F0012300224146304600F092F828B90022F5
S11348000021304600F0A8F800B1012009B0BDE84D
S1134810F08F03930199039BB1FBF3F341F2070774
S1134820114907EB8307CB183F0B00260F498B4236
S11348304FF0200AFFF439AE9BE603930199039BE2
S1134840B1FBF3F79742FFF424AE7F003F1D26E649
S1134850000000004CEA000401F0FF0052526141E4
S113486072724161F8FFFF000A00FFFF0000FF0FB2
S11348709DF80000012370474AF6552108F5FF70A2
S1134880FEF75EB84FF4805200214046FEF76CB844
S1134890414600F045B80000EBFE904D53444F53A1
S11348A0352E30004E4F204E414D452020202046CD
S11348B041543332202020004E4F204E414D45209C
S11348C02020204641542020202020000100040004
S11348D0100040000001000200000000010002007E
S11348E004000800100020000000000000E000BFE9
S11348F000B10320704770B50D4616461C4658B1EA
S1134900032070BD4FF480522946300300F049FD66
S1134910761C05F58055641E002CF3D1002070BD73
S113492070B50D4616461C4680B1032070BD300399
S113493000F041FD70B94FF480522946300300F075
S113494042FD38B9761C05F58055641E002CEED165
S1134950002070BDC0B270BD48B903294FF4805027
S113496003D8DFE801F0060A080C0420704703208E
S11349707047002070471080FBE71060F9E71020B3
S1134980FBE700F07EBDF0B402461068956813188A
S1134990506803EB5004C00721D54D441FE0F0BC20
S11349A002F10C00704713F8017B05F8017B491EE6
S11349B0F9D1A0B1B60813F8011B06F00306032EC3
S11349C008BF13F8016B01EB06214942801C2944FE
S11349D005D011F8016B05F8016B401EF9D1A34213
S11349E0DDD013F8016B16F0030104BF13F8011BAB
S11349F0C91C30090F28DAD113F8010B0F30D6E7A0
S1134A002DE9F04104460E461746984672460021A9
S1134A101C2000F09FFD05001DD014B900F031FDED
S1134A200446089A0799069800232B702C61686045
S1134A30A960EA606F612E7685F819802946DFF84F
S1134A40B04704F1080000F0E9FD6068BDE8F041FA
S1134A50012100F0BEBEBDE8F0811CB504462078FB
S1134A6080B9E168019160680090217E637E62698B
S1134A7020696131C9B200F06AFAA068BDE8164045
S1134A8000F0BCBF13BDDFF868074068022100F0E6
S1134A90A0BE80B50423DFF858270093536814326E
S1134AA001F0AAF801BDF4E738B5A8B0044600F057
S1134AB04AFA00F0BDF84FF6FC70241AC4A50FF2B0
S1134AC0D071C4A22AD0641E25D0641E3CD10FF23A
S1134AD0C874234618A801F0ABF8224629460DF104
S1134AE0060001F0A5F80DF15E020DF112010DF1C1
S1134AF0060000F071F90DF1120000F0A7FC2F2060
S1134B008DF81E000122DFF8EC4618A92046FEF7B6
S1134B1027FE30B118E00FF28874DAE70FF28874D8
S1134B20D7E7E068218A0090ADF804102046FFF72B
S1134B30BDF8DFF8C44600F076F804F15E00012108
S1134B404170017000F065F829B030BD800700D4D1
S1134B50704738B5B8B000F0F6F928A800F0F4F9B9
S1134B60DFF8944694F85F5001F0E6F800F08FF80F
S1134B7018A801F05DF800F05BF818A9684600F089
S1134B8043FB58B900F04AF807220FF2307118A815
S1134B9001F038F918A9684600F036FB04F1120157
S1134BA00DF1120001F052F900281CBF00980028F2
S1134BB027D00DF11E0001F047F910B30DF11200DA
S1134BC001F042F9E8B100F029F8B6A30DF11202A0
S1134BD00FF2F06118A801F02BF84022002128A858
S1134BE001F02DF90DF11E0001F02EF902460DF130
S1134BF01E0128A801F006F918A928A800F05EFAF9
S1134C00054600F010F884F85F5000F002F839B05F
S1134C1030BD2146DFF8E40501F00ABA4022002144
S1134C2018A801F00CB960226946204601F0EAB8E0
S1134C3060220021684601F002B910B592B002A8C2
S1134C4000F082F968460FF28461082201F0B0FB9B
S1134C5001F072F800F01BF802A800F0E9FF6946C1
S1134C6002A800F02BFA04464022002102A801F019
S1134C70E6F807220FF2446102A801F0C3F869467E
S1134C8002A800F01BFA0419A0B212B010BD03462A
S1134C9050A20FF22061704780B5FFF7CEFFBDE848
S1134CA004400146DFF8580501F0C2B97CB5DFF8CD
S1134CB040556FF07F4624E005F1140000F0B4FC89
S1134CC0040006D0216809B160688847204600F0D6
S1134CD071FC68690028EFD110E005F1080000F0CC
S1134CE0A3FC040004D0FFF7B8FE204600F062FCE9
S1134CF0A8680028F1D101994807EAD40198FFF780
S1134D0025FF01A800904FF0FF3368680022314668
S1134D1000F097FD0198C107EAD4ECE780B501F0F3
S1134D202EFC01F0B1FC01F07CFC01F015F801F05F
S1134D301EF801F053F800F05FFE01F024F80020A3
S1134D4001F0A5FD12E080B501F019FC01F09CFC16
S1134D5001F067FC01F000F801F040F801F007F8F9
S1134D6000F04AFE01F00FF801F05AFFBDE80140DF
S1134D7001F0E8BC10B5DFF87844206860B900F0B1
S1134D8004FB48B9012000F0FDFC606030B9002349
S1134D9000220021C046C046012010BD002104F1BC
S1134DA0080002F07FF8002104F1140002F07AF800
S1134DB001F056FB01F0CAFC00F0E7FF00F09CF89C
S1134DC0002104F1200000F046FC2060002010BD0A
S1134DD0257300002F0000003EB50D46002101910F
S1134DE08DF8001014466B4601AA0FF2E84102F058
S1134DF0B5F8019AB0A1284600F01AFF9DF800000A
S1134E00A0F14101217037BD10B50400134609D04B
S1134E100A460FF2C04100F00BFF00F020F80C2806
S1134E208041C00F10BD10B5040001D1002010BD99
S1134E3000F06CFF38B100F07FFFFFF728FF204639
S1134E4000F0F6FE05E007220FF27041204600F064
S1134E50D9FF00F004F80A288041C00F10BD204695
S1134E6002F090B87CB504000D461AD0B5A642B144
S1134E7000F08BFF019000962B4632460FF25C4106
S1134E8007E000F082FF009033460FF230420FF249
S1134E905841204600F0CCFEFFF7E1FF4128804155
S1134EA0C00F76BD2E3F000010B5044600F0C4F8D4
S1134EB02146BDE81040D34801F0BAB818B593B004
S1134EC0044668464C2102F07BF83F22214668469E
S1134ED000F098FFFFF7C3FF0B2204F14001684480
S1134EE000F090FF684601F03AFB01F0C2FB68460F
S1134EF001F033FB14B010BD10B5A0B0044610A8E7
S1134F0000F022F8684600F01FF86846FFF78BFFB0
S1134F10B8B16846FFF7A4F9002818BF082810D1D3
S1134F206846FEF7DFFE60B94022002110A800F0B9
S1134F3086FF2246ACA110A800F07AFE10A8FFF765
S1134F408FF920B010BD18A8402102F039B82DE91E
S1134F50F043A1B00546299C06200E464443002791
S1134F6091469846009701A8FFF7EEFF11A8FFF7B6
S1134F70EBFF012C55DB204601F0C6FB002850D086
S1134F804246494601A8FFF76DFF002849D000F0CA
S1134F904BF808B3052844D100F049F801A8FFF7FD
S1134FA042FF00283DD000F03FF8052804D101A8B5
S1134FB0FFF756F900F038F868B900F038F800F057
S1134FC0E4FE024688A101A800F032FE01A8FFF722
S1134FD047F900F029F820BB3246294611A8FFF70B
S1134FE013FFF0B1834D322211A92846FEF7B8FB16
S1134FF0B8B928996B4622462846FEF739FD009831
S113500001F02DFB0098A042284602D0FEF74EFE88
S113501007E0FEF74BFE00F00AF8402101A8FEF776
S11350208BFE21B0BDE8F08301A8FEF75BBE4022F1
S1135030002101A800F003BFF8B594B00546002490
S1135040009401A84C2101F0BBFF3F22294601A88E
S113505000F0D8FE284601F095FF01AB0B2205F1C4
S11350604001184400F0CEFE4FF0FF30EC6D6E6D41
S1135070A865ECB15F4F012201A93846FEF770FB29
S1135080B0B9296D3846FEF7C7FE40B96B463246C3
S113509021463846FEF747FC08B9009818B9384647
S11350A0FEF704FE04E03846FEF700FE0098A8650B
S11350B015B0F0BD00000000257800002DE9F04394
S11350C093B00446884601F05DFF0646A019002708
S11350D010F8010C00252F2804BF761EA75543465F
S11350E02246694606A8FFF700F80FF200191AE0F5
S11350F06D1C14E0B7F5807F1ADA7F1C2E28F9D0D6
S11351009DF80800C106F3D50DF109024946A0191E
S113511000F08EFD41462046FFF7D0FF4519694651
S113512006A8FEF7CBFF18B99DF809000028E1D1C5
S11351300020A05506A8FEF793FF284613B0BDE84B
S1135140F08300002F0000002DE9F0438DB00546E8
S11351500E4629466846FEF754FF0024002700281F
S11351600FF2880829D131466846FEF785FF08BB4F
S1135170707AF8B1307AC10623D5284601F002FFCF
S1135180814606F10902414605EB090000F050FD95
S113519031462846FFF7D8FF04000BD1284601F01A
S11351A0DCF900207F1C05F80900B7F5807FDADB05
S11351B000E001246846FEF753FF20460DB0BDE829
S11351C0F08330680028F4D1284601F0DBFE07465E
S11351D006F109024146E81900F02AFD284601F0CB
S11351E0BCF90020E855E5E7256400002F2573008D
S11351F0640B000498FA0004C80A0104430901007E
S1135200311101004B0C0100F8B586B005460E467D
S113521069463046FFF798FF00270446012C2CD13D
S113522060220021284600F00AFE0B220DF109013C
S1135230A81D00F0E7FDA81D00F008F9314605F1AE
S11352401E0001F0C1FE00E07F1CE819807F0028E9
S1135250FAD1E8192F21817705F15E0200982860C0
S113526005F112010DF10900FFF7B6FD05F1120079
S113527000F0ECF8BDF81600A880204607B0F0BD99
S11352800B461146024689B2184601F08FBF000052
S113529025732573000000006C6F672E747874000A
S11352A06366672E747874006F6C646C6F672E7419
S11352B07874000025732578000000002F70756253
S11352C06C69630025732573620000002A000000E6
S11352D00000000025782E256362000025732578E0
S11352E025732564000000002573257325640000E0
S11352F0F8B584B00F460A9E14461D466846102130
S113530001F05EFE0097019403951EB1029840F4EB
S1135310801002906946424801F0CDFF05B0F0BD0F
S113532030B585B06846142101F04AFE3D4D802415
S11353302C70684602F000F83B49029100204FF4BB
S113534040618DF80400ADF802008DF80D00ADF851
S11353500E1000F00BF8012002F00CFB03466A4625
S113536032492F4801F069FF05B030BD10B52C4C0F
S1135370E16B00291CBFA06B002805D0204601F07A
S11353808DFF08B9E063A06310BD80B502F0E2FBB5
S1135390FFF7C6FF254A2649264802F02DFC0020C7
S11353A002BD1346020501D0022070470A46014699
S11353B0204802F025BC010501D0022070470146B7
S11353C01C4802F0A8BC2DE9F8430546170A280535
S11353D0884602F0FF0418BF02201DD100200026D9
S11353E0DFF850900AE04FF4807308EB062205EBD7
S11353F00621484602F04FFC70B9761CBE42F2D337
S113540054B1234608EB072205EB0721484601B0B7
S1135410BDE8F04302F03FBCBDE8F28300000000A9
S113542064BD010414E400E000366E01007008401D
S1135430F152000054BD010432B1521E30F8123052
S11354408B42F9D10120704700207047002206E00A
S1135450A1F141031A2B3CBF20318154521C815CC1
S11354600029F5D170470F49886048684205FCD48B
S11354700A6842F004020A604868C205FCD40020AD
S1135480704782B00A2008490A6801920B680093A9
S1135490019A009B9A4201D0401EF5D1009802B0B7
S11354A07047000000B0004008B0004030B503462B
S11354B0002006E011F8014B13F8015BAC4208D35D
S11354C0521E3AB11C780D78AC42F3D24FF0FF3043
S11354D030BD012030BD42681143416070474268CD
S11354E022EA0101416070472DE9F0414BF254007A
S11354F0494C26180020254604F14408A4F840002D
S113550000E014366F883946304601F0CBFC12E0D7
S11355104146304601F0CCFCC8F80C607F1EB07CDC
S1135520401CB074B4F84000401CA4F84000298822
S1135530414401F11008B8B20028E9D135F8040B50
S1135540F08135F8040B30822888B0810028D8D146
S1135550BDE8F0812DE9F04104462F4E4BF2540092
S11355608846371800F0A7F906E0B889A0421CD392
S11355700446B889C8B11437BCB1F889A042F8D33D
S1135580398A8845F5D1384601F0C7FC0500ECD0CE
S1135590B6F84000411EA6F84010F87C401CF87490
S11355A000F079F905F1100002E000F074F9002030
S11355B0BDE8F081F8B504000BD0174EA4F1100536
S11355C006F144018D4222BF4BF25407F119A9425E
S11355D001D20320F2BD00F06EF9A4F10801F21922
S11355E04C6802E09089A0B114329442FAD109685F
S11355F079B9B6F84000401CA6F840002946204678
S113560001F056FCE07C411EE17400F044F90020F6
S1135610F2BD00F040F9DCE720110004103901F07C
S113562047BC103901F05CBC80B501F076FC00B1D8
S1135630103002BD80B500F03DFCFEE702F0D0BEA4
S1135640DFF8C4124FF080500860BFF34F8FBFF3F0
S11356506F8F002070471FB50B4602A901910024EB
S11356604268C2F1100200928169C2680068920324
S1135670120C02F079FB012808BF029C204604B0FA
S113568010BD6421484300F2E7304FF47A72B0FB56
S1135690F2F002F035BC0146FF2003F02AB880B5D1
S11356A008B9012002BD11F1010F08BF4FF0FF320C
S11356B006D0491D642251434FF47A73B1FBF3F2CF
S11356C00023002103F04EF908B9022002BD002096
S11356D002BD1CB50124B0B1EFF3058161B1002214
S11356E00092694603F0FAF801280CD100980128C9
S11356F008D100F09DF805E00023002203F010F823
S1135700012800D10024204616BD012002F0CDBF9F
S113571070B504000D4606D002F0D9FF064602F02B
S11357205FFE864201D1012070BD15F1010F08BF53
S11357304FF0FF3206D06D1D642045434FF47A715B
S1135740B5FBF1F200230021204603F00BF908B960
S1135750022070BD002070BD38B5040010D002F0E6
S1135760B6FF054602F03CFE854209D10023002223
S11357700021204602F0D4FF012801D1002032BDCF
S1135780012032BD70B5054600F095F85F4E082142
S11357903068D8B10C36491EFAD1002600F07BF8E7
S11357A034460CB9002070BD03F076FAB06008B13D
S11357B0357109E000F07FF821460FF2A41000F0E3
S11357C0BFF800F068F80024204670BD0120306066
S11357D0E4E738B50D4600210091044600F024F8B2
S11357E000281CBFA068002801D1012032BDEFF3BE
S11357F0058098B1A0686A46294603F019FB012880
S113580006D00023002242490020C046C046ECE7EF
S11358100098012806D100F00BF803E02946A0689F
S113582003F0C0FA002032BD21460FF2341075E0B7
S1135830354A4FF080511160BFF34F8FBFF36F8F24
S11358407047F8B507460C4616461D463946FFF71D
S1135850ECFF00281EBF24F07F44B868002801D163
S11358600120F2BD15F1010F0EBF4FF0FF310A21E7
S1135870B5FBF1F1069D3A7902B10122009133465C
S1135880214603F016FA044005B12C600CB1002047
S1135890F2BD0220F2BDEFF3058048B11D49086A4C
S11358A040B1401E086251F8200080F3118870470F
S11358B003F058BB7047EFF3058098B11548016AAF
S11358C0082911D2EFF31181026A40F82210202135
S11358D081F31188BFF34F8FBFF36F8F016A491CA7
S11358E00162704703F025BB704740B203F092BBDE
S11358F080B503F00AFE00210748FFF7ACFE02F072
S113590022FB002002BD000004ED00E0A40B010412
S1135910D3570000800B0104BC0B000410B50268CF
S1135920002302E044685B1C22448468A34205D23D
S11359308A42F7D1106808B1012010BD002010BDC3
S113594010B50268002302E044685B1C22448468AA
S1135950A34203D28A42F7D10020106010BD000098
S1135960A40B01040C0000000800000010B59E4CBC
S1135970062104F1100001F023FB01202074002013
S1135980A06103F0C5FE607310BD2DE9FF41964C84
S1135990A0692044017C012918D1E069012815DBA4
S11359A0E569A669A76900F0B1F9804600F0C4F979
S11359B04FF461618D4A02954F43D11900910196CC
S11359C00246217920684346FFF71AF8BDE8FF81B3
S11359D080B500E080B5FFF7D8FF00F018F88248E2
S11359E0407BBDE8024003F04DBF80B500F0EBF909
S11359F0BDE8014000F0DEB97B4880697A490A18A5
S1135A00127C012A02D108440023037470477649AA
S1135A10C869002800DC704710B500220623886995
S1135A201018401C062490FBF4F403FB140401F149
S1135A301000005D28B1521C062AF0DB0020C8616A
S1135A4010BD01F110028C6101201055F6E7664982
S1135A500120087370472DE9FF47634CDFF88C8100
S1135A60E069B0F5167FA4BFE16901294FF46165CF
S1135A7017DBE769A669D4F8189000F047F9824665
S1135A8000F05AF90246029705FB09F1019608EB6A
S1135A9001000090534621792068FEF7B1FFFFF71B
S1135AA0B6FFFFF7EEFCA169E269531CE3614D43C5
S1135AB0062108EB05034A439918020A08704A7044
S1135AC0020C000EC8708A70FF2008714871002013
S1135AD02073BDE8FF872DE9F84F434E84B08A4612
S1135AE0317B804609B1FFF7B6FF306820B9FFF774
S1135AF0C8FC3060FFF779FFF0693C4CB0F5167FC5
S1135B004FF4616722DBB168F06941183848B1602D
S1135B10814202D300F03FF818E0F0690390D6F810
S1135B201890B56900F0F2F8834600F005F903997E
S1135B3002917D4361190091CDF8049002463179B8
S1135B4030685B46FEF75CFFFFF761FFCDE9008A32
S1135B50B069F1694A1CF26147430620E2194143E6
S1135B6050186946062200F023FC707B214A05B0D8
S1135B70BDE8F04F0023052103F060BE80B5FFF7B8
S1135B8004FFFFF744FF184801210173002101605D
S1135B908160017101BD10B5134C2079401C1A2895
S1135BA002DBBDE81040E9E7FFF7EFFEFFF72FFF48
S1135BB00020A0602079401C2071BDE8104014E74B
S1135BC037B59DF804001A2805DA6A4692E83800C9
S1135BD0054981E8380037BD10B5034991E81C0038
S1135BE080E81C0010BD000098C20004AC670104EA
S1135BF0A05401004F5A00002DE9F04104460D461F
S1135C0016469846724600210820FFF7A3FC08B9FF
S1135C1005200BE0069F0460456001463046FFF70F
S1135C20FDFC39464046FFF7D4FD0020BDE8F08175
S1135C300CB430B583B0044606A802900A46002589
S1135C400194009502AB01A9084878441E3003F082
S1135C5033FF01990D7000284EBF04460198041BC0
S1135C60204603B030BC5DF80CFB00BFEB0700001E
S1135C70002818BF10F1010F01D001207047002047
S1135C80704753490870704751480078704738B5D9
S1135C9004464F4D0F222146681C00F0BFF8A8B9F6
S1135CA05F22215C2C2908BF2254401C0F28F8DBFA
S1135CB00F220021681C00F0C2F80F222146681C44
S1135CC000F0A0F8434801210170417031BD424801
S1135CD0704738B53E4D044695F85800A04208D0A8
S1135CE0200002D1FFF774FE01E0FFF747FF85F8BB
S1135CF0584031BD364890F858007047344981F80F
S1135D0059007047324890F8590070473048407C39
S1135D10704738B52E4D0446687CA04205D0FFF785
S1135D202DFF2C496C740120087031BD2848007C7B
S1135D30704727490874704725484069704738B54B
S1135D40234D04466869A04205D0FFF717FF214997
S1135D506C610120087031BD80B50020FFF7D9FFC8
S1135D601B4A002111740020BDE80240E7E7F8B5A2
S1135D7068460FF28001102200F02AFB6846FFF704
S1135D8086FF05B000BD04F025BA1148C06D704708
S1135D900F49CA6D824203D0C86501200D490870BD
S1135DA0704780B504F0F6F90A490120087001BD76
S1135DB004F0EBB910B5074C207818B100F0B6FD2B
S1135DC00021217010BD03490120087070470000B4
S1135DD05C070004B5C501045D07000484B000201D
S1135DE000908DF804000290694607C904B0FFF7DB
S1135DF0E7BE000033364E4F544553000000000008
S1135E000000000000F0D4BA3AB11044401E11F86A
S1135E10013B00F80139521EF9D1704710B504F066
S1135E2051FA012400B10024204610BD2AB1521EAB
S1135E30835C8B42FAD000207047012070471346E0
S1135E400A46194604F072BA01F09CB881EA0003CC
S1135E509B0717D1820707D010F8012B11F8013BDB
S1135E60BAB19A42F6D014E002680B689A42A2F1E1
S1135E70013301BF934313F0803F50F8042F51F8CE
S1135E80043FF3D010F8012B11F8013B0AB19A42F8
S1135E90F8D0D01A704703681AB95A1E026008462F
S1135EA07047197811B94FF0FF3070475A1C0260DF
S1135EB018787047FEB5DFF8D464307800284DD1E7
S1135EC001213170FFF710FB03F0E7FB04F062FAE5
S1135ED004F03EFB04F0E9FD002004F033FE0FF271
S1135EE0452004F017FF022004F058FFDFF8A00457
S1135EF00FF2B9410160706858B9002106F124001D
S1135F00FFF7A9FB706020B9002300220021C046DE
S1135F10C04605F02DF805F036F805F0B9F8012073
S1135F20FFF730FCB06018B900230022002112E012
S1135F30002106F10C0000F0B5FF002106F1180065
S1135F4000F0B0FF0FF2912005F02CFA30B10023DD
S1135F50002200210020C046C046F7BDDFF83414FB
S1135F600C78002001906FF07F4701A800904FF05B
S1135F70FF33B06800223946FFF763FCF06850B184
S1135F8006F10C00FFF750FB050004D000F0CCF83C
S1135F902846FFF70FFBB06960B106F11800FFF760
S1135FA043FB050006D0296809B16868884728467C
S1135FB0FFF700FBF068002819BF012101910022BE
S1135FC00192B06918B1019941F00201019101985F
S1135FD018B1B0680221FFF7FCFB002CC5D1F7BD56
S1135FE038B5DFF8B003DFF8B053047804F0D9FF14
S1135FF040B105F000F82888C0F3C00020B104F0D7
S1136000B5FE01E005F010F8002CEFD131BDDFF84A
S11360108C23106091600FF2D5200FF2ED1105F082
S1136020DFB9DFF87813C8600FF2F52005F0F6B990
S113603038B504460D46724600210820FFF78AFA57
S1136040010001D1052032BD0C604D60DFF83C43F6
S113605004F11800FFF7E2FAA0680221FFF7B9FB88
S1136060002032BD70B515461C4648BBDFF83063CE
S113607019B11C223046FFF7C5FE2DB1082229466E
S113608006F11C00FFF7BEFE2CB13822214606F1B2
S11360902400FFF7B7FE049921B13C2206F19C00CD
S11360A0FFF7B0FE059900291CBF0698102807D0F9
S11360B006EB8000BDE8704004225C30FFF7A2BE0E
S11360C070BD70B50600084615461C4627D1DFF89A
S11360D0D06218B11C223146FFF794FE25B1082284
S11360E006F11C0100F0FEF82CB1382206F124015F
S11360F02046FFF787FE049820B13C2206F19C015C
S1136100FFF780FE059850B10699102907DA06EBCF
S11361108101BDE8704004225C31FFF773BE70BD9D
S11361200000000005F0BAB91CB502789B49092AA1
S113613051D8DFE802F005180A11222B34363E4705
S1136140BDE81640001D04F0FABF0968002942D0DA
S1136150BDE81C40001D0847496800293BD0BDE844
S11361601C40001D08478A68002A34D000F1080149
S1136170007902B0BDE810401047CA685AB300F174
S11361800801007902B0BDE8104010470C6914B34F
S1136190B0F90830827941790079A04713BD4C6980
S11361A000E08C69BCB1438942680189007BA04747
S11361B013BDCC697CB10389C18800F10A0200795E
S11361C0A04713BD0A6A32B100F10801007902B098
S11361D0BDE81040104713BD38B50546724600218E
S11361E02620FFF7B7F904000CD0002121702222E9
S11361F02946201DFFF706FE00F0C1F8A868BDE897
S11362003440CFE031BD0000F8B50D46064628788D
S1136210282309280DD169684868302318B10A7801
S11362200B7C9B183233886800B11633C86800B100
S1136230103372460021D8B2FFF78CF9040050D015
S1136240012020702671287809283ED16E682072BA
S113625004F11007E760202269683846FFF7D2FD91
S1136260706807F12005A8B1E06831780170E06832
S113627045603278716800F035F83078E16805449B
S1136280307C0874E0684561327C716900F02AF85A
S1136290307C0544B06880B1E1688D601022B1683B
S11362A000F020F8E168B07E88761035E068C561BA
S11362B00622F16900F016F8AD1DF06858B1E168E6
S11362C0CD601022F168284603E02422294604F117
S11362D00800FFF797FD00F052F8A868BDE8F44005
S11362E060E0F1BD2846FFF78DBD000010B50446FF
S11362F0724600210820FFF72DF901000ED002227A
S11363000A70207808716088204CC88004F10C0061
S1136310FFF784F9A068BDE8104043E010BD000019
S113632070B50E46054631781420022912BF04299F
S1136330F08814307246002180B2FFF70BF9040094
S113634017D00420207025710C2200F013F8207A55
S1136350022818BF042806D104F114002061F28831
S1136360B168FFF74FFD00F00AF8A868BDE8704077
S113637018E070BD314604F10800FFF743BD034D3A
S1136380214605F10C00FFF749B900008C05000413
S1136390E8C3010470B60200AAC40104C8CC000416
S11363A0F0CB00040121FFF714BA000004F0EBBDA8
S11363B062B38B0708D0521E11F8013B00F8013B71
S11363C000F024808B07F6D1830740F0208000BFC3
S11363D0103A07D330B4B1E83810103AA0E83810B6
S11363E0F9D230BC530724BFB1E80810A0E8081064
S11363F044BF51F8043B40F8043BD20724BF31F8B2
S1136400022B20F8022B44BF0B7803707047121F35
S113641017D35B0009D151F8043B20F8023B1B0C55
S1136420121F20F8023BF6D20BE051F8043B00F8AF
S1136430013B1B0A20F8023B1B0C121F00F8013B16
S1136440F3D238BF121D521E24BF11F8013B00F8CD
S1136450013BF8D870470268531C03601170704701
S11364607CB56C4D6AA6012231462846FDF755F9E4
S1136470C8B1724600F0A5F8040014D000F09CF8EE
S11364804FF4805000902346002207213046FDF748
S11364906FFF002231462846FDF73FF92046BDE84C
S11364A07640FFF787B873BD2DE9FC470A9F0B9D23
S11364B0EE1B0C460021002818BF002C904699467C
S11364C0009109D0B8F1000F18BFB9F1000F03D043
S11364D0002F04D4AF4202D10020BDE8F687FDF7B7
S11364E001FC38B9DFF830A1012221465046FDF7FE
S11364F037F908B10098F0E715F1010F06D1DAF881
S11365000C00012808DBC61BB14505D36B46324697
S113651041465046FDF707FA5046FDF7C7FBE9E749
S1136520F8B50C460021009115461E46FDF7DAFB2E
S113653088B9079A384F42F0020221463846FDF7DF
S11365400FF940B96B46324629463846FDF790FAB2
S11365503846FDF7ABFB0098F2BDFDF73CBE38B5FD
S113656001462D4C01222046FDF7FAF808B100201F
S113657032BDE5682046FDF799FB284632BD38B5A3
S1136580724600F01EF8040015D000F015F84FF420
S1136590805000901EA52346002207212846FDF7BF
S11365A0E7FE012229461B48FDF7B7F82046BDE85F
S11365B03240FEF7FFBF31BD4FF480520021FFF798
S11365C03EBC00214FF48050FEF7C4BF3EB50446E4
S11365D00020ADF800006A460221FEF7BDF901AAC9
S11365E002A90BA0FDF790FD88B90198019B418990
S11365F002989D69BDF800204843AD1E694351438C
S1136600216050436060091A0020A160E06037BD3A
S11366100000000064EA000498FA00044248FFF70E
S113662007BD10B5FFF730FB4049414B4A680446AB
S1136630087C38B19A4211D300220A74BDE8104094
S113664000F0DBBA9A4209D20120087400F0C3FAC0
S1136650022C03D1BDE810400221DFE710BD33490D
S11366604A8A521C4A828A6882188A604A68101AC6
S113667008E02E498A8A521C8A828A68121A8A6021
S11366804A6880184860CCE72848FFF79FBF27492D
S11366901022FFF79DBE10B5264C2078FF2803D0AA
S11366A003F053F8FF2020700021BDE81040224879
S11366B0FEF7EFB980B504F0CAFF70B905F034F9FC
S11366C005F099F948B103F05BFC022805D105F007
S11366D015F910B9BDE80140DDE701BD80B503F04F
S11366E017F81449154A08700346BDE800501E21E6
S11366F003F09DB810B50F4C2078FF2803D003F0A9
S113670024F8FF20207010BD08480D4A41689142CA
S11367108041C043C00F704780B50448FFF756FF5F
S1136720BDE801407DE7000071110100A40B0004E5
S113673001002000A4C40004D9E10000B5660000F3
S113674001001000A7E700030400020838B5C4B034
S113675014A8402100F034FC00240994089424A8CF
S1136760802100F02DFC4FF0FF3001900A940B942F
S11367700094802324AA0FF2CC116EA0FFF794FE9C
S113678000280EDCFEF77DFE0B2802D20898401C80
S113679008900898FFF7FCFA10A80FC8FFF7BCFF91
S11367A073E009AA64A124A800F0D8FB0998012881
S11367B016D114A806900FA90EA8059104900DAA4D
S11367C00BA907AB0AA803920291019300900794C6
S11367D008AB09AA0FF2741124A800F0BFFB1CE057
S11367E002281AD114A813A90790069112A811A976
S11367F00590049110AA0BA80CAB0AA9039202906D
S1136800019300910C9408AB09AA0FF2601124A81B
S113681000F0A4FB0C9803F0BDFC48A5294624A86D
S113682005F038F910E04022002114A8FFF707FB17
S11368302046FFF709FB0246214614A8FFF7E2FAB7
S11368402946002005F026F90400ECD114A8FFF72E
S1136850FBFA10B114A8FFF71AFA10A80FC8FFF733
S11368605BFF0898FFF794FA0A99C8B2FFF751FA48
S11368700A9810B10B98FFF762FAFEF702FE0B2894
S113688003D30DA807C8FFF79BF945B030BD2DE928
S1136890F041AEB00EA8802100F092FB0AA81021AE
S11368A000F08EFB6846FFF7F2FE07A8FFF794F9A5
S11368B0FFF70DFA01460F220AA8FFF7A3FA0020FA
S11368C08DF83700079CFFF737FA054603F05DFCA7
S11368D00646FFF71BFA0746FFF757FA80460EA84D
S11368E0FFF7B2FA0AA906910394099A9DF82010B9
S11368F0059204910EAC029501960097434601223D
S11369000FF248012044FFF793F90EA8FFF79CFA11
S1136910082100220191009203460EAA0FF22401DD
S113692004A0FFF7FDFD2EB0BDE8F081002104486E
S1136930FEF7AFB82F000000256400002C00000013
S11369408F6800006366672E7478740025642C25B4
S1136950642C25642C256C752C256C752C256C7584
S11369602C25642C256C752C2573000025642C259E
S1136970642C25642C256C752C256C752C256C7564
S11369802C256C752C256C752C256C752C257300A9
S113699010B5DFF8DC442078FF2802D102F0B8FEFD
S11369A020704FF4FA7120780FF2C922BDE810402C
S11369B0034602F05BBFDFF8B804007802F062BF60
S11369C010B5DFF8B04402F0A3FE207002F0A0FE80
S11369D0607010BD10B5DFF89C44207802F052FFBF
S11369E06078BDE8104002F04DBF80B500F0A1F81A
S11369F00022DFF880040FF2110340780092012195
S1136A0040F6C4120FE0000080B500E080B500F04D
S1136A10DAF80022DFF85C04DFF85C344078009296
S1136A2001214FF47A7202F0BEFE01BD80B502204E
S1136A3003F0F5FC00F07DF8DFF838044078BDE899
S1136A40024002F01FBF80B503F096FB58B1FFF778
S1136A509FFF00F0AAF8FFF7D9FFBDE802400FF24C
S1136A60452005F03BB801BD80B5FFF7DFFF00F01E
S1136A70C0F8BDE804404FF4FA71012003F00BBDE7
S1136A8080B500F053F8FFF7D1FFBDE804400321BF
S1136A90C3E010B5FFF7F8F8DFF8E0231178002918
S1136AA018BF022833D1DFF8D843217831B100F080
S1136AB032F800202070012060700DE0002804BF2F
S1136AC0617801290AD100F031F8FFF7AFFFFFF731
S1136AD09DFF002060700120A0700AE001280AD107
S1136AE0A078012816D1FFF7BFFF00210120A17073
S1136AF06070E07010BD022804BFE078012809D15D
S1136B00FFF7BEFF00210120E170607010BDBDE8F9
S1136B10104060E010BD80B500F008F8FFF786FF74
S1136B2000F007F8BDE80440032151E0012003F020
S1136B3076BC0421022003F039BC80B5FFF73BFF8B
S1136B40FFF7F4FFFFF772FF04F081FD38B904206A
S1136B5003F065FCBDE80240082003F060BC01BD01
S1136B6071E780B5FFF762FF4AE00521022003F0D8
S1136B7066BC1CB500F019F8032103E01CB500F055
S1136B8014F8042100F067F86078DFF8F822002395
S1136B90C82102F06BFE002000904FF47A72207836
S1136BA0B94B012102F0FFFD13BD0421012003F0C4
S1136BB0FDBB80B505F0CAF8FFF7F7FF00F003F856
S1136BC0AC48B04A0EE00321022003F0EFBB0521DC
S1136BD0012003F0EBBB80B5FFF7ABFF00F009F831
S1136BE0A448AA4A4078BDE800500023FA2102F0E4
S1136BF03DBE0321012003F0D9BB80B5FFF7C8FED9
S1136C0000F02DF8BDE8014043E780B505210120DF
S1136C1003F0CCFBBDE804400521022003F0C6BB11
S1136C201CB5FFF7C8FE00F01DF8FFF77FFFFFF764
S1136C30FDFEFFF7DEFF042100F00DF86078944AB2
S1136C400023FA2102F012FE0020009040F2DC52F0
S1136C502078904BA5E70220864C03F0A7BB884818
S1136C60012101E08648002141708170C1704171A9
S1136C707047000010B5824C207900281CBF217891
S1136C80012904D1FFF705FF0120607110BD01281F
S1136C9004BF6079012804D1E179A079BDE81040EE
S1136CA000E010BD38B5764C05460129A571E171A7
S1136CB002D10120207125E00229FAD0207901288F
S1136CC01DD1032918BF062903D0042918BF05299B
S1136CD015D10020207101206071FFF7C0FF012D44
S1136CE007D103F049FA08B105F052F8FFF79EFE08
S1136CF005E0022D18BF032D1CD100F0A0F8207967
S1136D00012817D16179012914D1012D02D1FFF78E
S1136D1050FF0AE0022D04D100F084F805F016F8C3
S1136D2003E0032D08BF00F07DF8FFF79BFF002070
S1136D302070607131BD81B2042003F0ACBB10B58A
S1136D405549564C08700A2807DA00F03FF82178B4
S1136D5011B90321042015E03CE0642809DB00F0AC
S1136D6031F82078002819BF0421082003210820C5
S1136D7008E000F02BF82078002807BF0321042046
S1136D80042104202BE010B5434C60B1042003F02F
S1136D9046FB00F017F820786428B9BF03210420CB
S1136DA0032108200DE000F011F800F00BF8207822
S1136DB00B2804DA03F0E0F9012800D10AE00421E9
S1136DC004200CE00421042003F0F0BA042108207C
S1136DD003F0ECBABDE810404FF47A70ABE7BDE8BD
S1136DE0104003F0E3BA80B5012810D1032103F069
S1136DF0DDFAFFF7E8FE4FF47A71012003F04BFB54
S1136E00BDE804404FF47A71022003F044BBFFF75D
S1136E10CCFEFFF78EFEFFF789FEBDE8024002209C
S1136E2003F0FDBA10B51E4C207838B90121217049
S1136E30FFF7C1FD2078BDE81040D4E710BD184825
S1136E400178012900D0704780B500220270FFF755
S1136E5006FF0020FFF7C7FFFFF79AFD03F08CF948
S1136E6018B1BDE8014004F093BF01BD000000006B
S1136E70AFC40004B0C40004EB690000B40B000408
S1136E80A7C400046B6B0000636B0000CF6B0000B1
S1136E900B6C0000FB6B0000BAC50104B4C501040F
S1136EA0BBC5010400220260426041810281704737
S1136EB038B504460D46FEF7FEFC2189608910B101
S1136EC0884200D125E000290EBF25606068056076
S1136ED060686860491C00202860AC60218138E04B
S1136EE038B504460D46FEF7E6FC2189608910B1E9
S1136EF0884200D10DE000290EBF6560206845601E
S1136F0022682A60AC6000226A602560491C2181E5
S1136F1020E0FEF7C0FC012032BD38B50446FEF780
S1136F20CAFC002C1CBF2089002800D112E025686F
S1136F30401E208180B200280FBF606000202968B5
S1136F404860286820600020A860FEF7A4FC28465A
S1136F5032BD6560FEF79FFC002032BD0DB4C0B5A4
S1136F600A4604A800210190009101AB03A904483A
S1136F7078440C3004F02CFF06BC5DF810FB00BF15
S1136F8017EFFFFF00F10103810704D010F8011B84
S1136F9089B18107FAD10268B2F10131914311F04C
S1136FA0803F04BF50F8042FF6E710F8011B11B11D
S1136FB010F8011BFBE7C01A70474FF4816070475B
S1136FC0002205F0D5B930025FEA000C80EA010323
S1136FD09B0715D1830706D011F8013B00F8013B4C
S1136FE0B3B18307F8D10A68B2F1013323EA02038B
S1136FF013F0803F02BF40F8042B51F8042FF3E74D
S113700011F8013B00F8013B13B111F8013BF9E71A
S113701060467047F8B5764C06462078002508B1DE
S1137020062517E073498E4206D2734F73493868B8
S1137030091A2439B14201D209250BE000F0CEF837
S113704008B1072506E0A060666001213868217058
S11370502430E0606A48C00A60802846F2BD2DE909
S1137060FF4D634F8346387888461446002608B996
S113707006263DE0B8F1000F18BFBBF1000F04D0A5
S1137080B96878684144884201D2052630E02BB1C2
S1137090594918680A6882182432FA605A46F9680D
S11370A0404605F094F9D0B9B24602E0AA441FFA6A
S11370B08AFAC24514DAA8EB0A05ADB2112DF968B3
S11370C028BF10256A465144284605F0B6F92A46D9
S11370D069460BEB0A00FEF7A1FE0028E6D107265D
S11370E0F8684044F860B8684044B86004B120606F
S11370F0304604B0BDE8F08DF8B53D4E0546307815
S1137100002418B1B1687068814201D0062422E0DD
S11371103C49394F087858B90FF2F4010A683868C5
S1137120009200216A4605F052F908B10720F2BD29
S1137130396806F10802042005F049F930B93968C4
S11371402A46091D202005F042F908B1072402E06F
S11371500120707034702046F2BD38B5244C60783C
S1137160F8B105F0AFF9002100916A46264D0421DB
S1137170284605F0C0F988B90422FF2105F10C0066
S1137180FEF754FE58B11C4A20491068411800917A
S11371906A46042105F10C0005F0ADF908B9002098
S11371A0607031BD124900200870704718B50EE0B8
S11371B010F8013B82EA032208235400120446BF5C
S11371C084F4805282F0210222465B1EF5D10B46E4
S11371D0591E9BB2002BEBD190B212BD10B505F035
S11371E0E1F8FFE7002400B10724204610BD0000A9
S11371F090670104010008004067010400D0030007
S1137200142900003C6701041429000000F803005D
S1137210DEADACE51CB51C4603F0ACFEE06B694684
S113722001F05CFB009838B11A4A4FF080511160AC
S1137230BFF34F8FBFF36F8F13BDF8B505000C4636
S113724018BF002C16461F4601D10420F2BD402170
S1137250FFF7B6FE012001F028FAA86348B1032223
S11372600021012001F0F6F9E86320B9A86B01F0D0
S11372703BFC0120F2BD2C603A463146204600F02A
S11372806EF82868044A2B46291D00F0F8F80020FF
S1137290F2BD000004ED00E01572000010B50446D4
S11372A0206800F0BEF8E06B01F01EFCA06B01F05A
S11372B01BFC002010BD38B505460C46A86B00F039
S11372C019F8012802D04FF4AF5032BD03F05BFE31
S11372D028682246291D00F02DF9040003D000F08F
S11372E00FF8204632BDE86B00F004F800F008F80F
S11372F0686B32BD00234FF0FF32002101F032BB36
S1137300A86B00230022002101F00ABA0029D0F85A
S1137310001412BF41F00101490849008DE0CFE19A
S113732001460020DFF8EC2191421FBF0120DFF865
S1137330E821914200207047002101700121417031
S113734000218170C1700171DFF8D41181600721BF
S113735001730021417301744174C181704770B598
S113736004000D4618BF002D164600D00EB90420A7
S113737070BD022105F05BF9002851D1A96832469D
S1137380204600F05DF800284AD12046FFF7C8FFE8
S1137390D4F80024DFF88C112B780A40E97809012D
S11373A001F010010A43A978490101F020010A43C0
S11373B02979C90001F008010A43E98942EAC312A4
S11373C001F470610A4342F00402C4F80024DFF8B7
S11373D04C112A7B01F8102001EB40006A7B4270BB
S11373E004F560610A6842F440320A60086840F0BB
S11373F0030008608A68DFF830010240287C00023C
S113740000F470600243687C000400F470200243BE
S113741042F003028A6020466978FFF777FF002074
S113742070BD00F560610F224A610A6822F440527F
S11374300A60D0F8001449084900C0F800147047E5
S1137440002818BF002900D00AB904207047B2FBF5
S1137450F1F1491E4FF6FF72914202D941F2E35015
S11374607047D0F82424120C1204C0F8242489B2E2
S1137470D0F824241143C0F82414002070472DE9C7
S1137480F04104000D4618BF002D1646984604D05E
S1137490FFF746FF0746002F01D5042038E03021CE
S11374A02846FFF78DFDD4F8000441072A464CBF57
S11374B00FF20D211D49204605F0CDF8174911F8AA
S11374C0172005F1240001EB470102704A7842704D
S11374D0D4F8081E090A01F00F010172D4F8081E3D
S11374E0090C01F00F014172EE61C5F820800FF222
S11374F0B020C057014611F1800F08D0012200F0DE
S11375001F0002FA00F00A4A490942F8210000204B
S1137510BDE8F0810070084000F008400C0C010444
S113752020A1070042F0FFFFFFF0F0FF1F730000EF
S113753000E100E078B5002818BF00290ED06AB138
S11375401468002C04BF5368002B07D001F12405F4
S11375502E78082E04DB137BDE0701D5042072BDD0
S11375608B69B3F5AF5F02D14FF4AF5072BD0C60BD
S113757053684B60136803B1D3688B60536803B1DD
S1137580D368CB6000F56060D3684B6100230B6166
S113759092686A604FF4AF528A61016841F44031E5
S11375A00160426842F003024260016941F00C014B
S11375B00161002072BD01F1240C2DE9F84100F5B0
S11375C0606601204FF0000837689CF801201032F3
S11375D09040C04300F470229CF80000000600F0C4
S11375E0706040EA020EDCF804007F08C20248BF63
S11375F04FF48018800207F0180713D548F40018D8
S113760010E0C8680D696D1CD20805FA02F24FF645
S1137610FF74904208BF9E4644EA0E04346208692F
S1137620401C086100237068420619D5326BC86893
S113763090B14868431C4B600270C868401EC86023
S11376409CF80030082B07DB4868431C4B60120A87
S11376500270C868401EC86001230869401E0861A2
S11376607068820627D50869B84224D29CF80020A5
S1137670886830B9C8680C69641CD508AC40A0425D
S113768019D38868002848EA0E03BAD00868441C55
S11376900C6004788868401E082A886008DB086843
S11376A0421C0A6000788A68521E44EA00248A60F8
S11376B088680028AEE7002BB4D1BDE8F181000052
S11376C07CB50D4605F12406A968002901BFEA68C6
S11376D0002A2969002900F608643FD02946FFF7EB
S11376E06AFFA868002804BFE96800290AD128694C
S11376F040B9216821F470612160A06840F0040061
S1137700A06073BDE9683278A868D208D14020B976
S11377102A698A4224BF0420E06099B9A968002933
S113772035D12869002832D028692168C1F3034182
S1137730491C88422BD22068296900F029F80843A3
S1137740206073BD2068C0F30340401C81421ED2F8
S1137750206800F01DF80143216073BD0C21E16035
S11377602168727A120421F4702102F47022114308
S1137770327A120202F470621143216041F2E15143
S1137780A961EC691CB12B6AAA692946A04773BD9B
S1137790491E090420F4702001F470217047000090
S11377A014150600EFF3108072B6704780F310884A
S11377B0704710B50446102C18BF112C0AD1FFF7DE
S11377C0F1FF8249214411F8102C521C01F8102CAD
S11377D0FFF7ECFF012000FA04F47D48046010BDBB
S11377E0010A01F00F01C0B24A1E0428D2B279493D
S11377F031D8DFE800F0030A161D26000868520598
S113780020F4001002F4001218E0100002D14868BD
S1137810C300FCD50B6823F0404343EA82730B603A
S113782070470868920420F4802002F4802205E066
S11378300868520420F4003002F4003202430A6063
S113784070474AB1012A03D1086840F40020086057
S11378504A689001FCD57047086820F40020F6E7D8
S113786018B50A0606285C4B5A4C40D8DFE800F0ED
S1137870040C141D253038005848026822F00042D8
S113788042EAC172026011BD2068090520F480102B
S113789001F4801101430EE02068514A6FF3101087
S11378A002EA01121043206011BD2068000901F0B2
S11378B00F0141EA0011216011BD1A68090222F486
S11378C07F4201F47F41114341F0FF01196011BD72
S11378D0186820F07F40024342F47F021A6011BD11
S11378E0216821F0706102F070620A43226011BDC8
S11378F0384801680A0304D538480168002900D4CF
S11379001FE03848704733490868800F04D109687C
S1137910C80200D5F5E714E00868800F012808BF05
S1137920FFF7E6BF0868800F022808D109688802BB
S113793002D54FF4FA4070474FF4004070470020DE
S113794070472948704780B5FFF7DDFF21490A6871
S1137950C2F30C11491CB0FBF1F002BD80B5FFF776
S1137960F2FF1C490A6802F00F02521CB0FBF2F04D
S113797002BD000010B506284FF400414FF4FA424E
S1137980144B20D8DFE800F004070D0A10161A0083
S1137990FFF7B9FF10E0FFF7D6FF0DE018684403C6
S11379A00CD5FFF7DBFF07E01968C80254BF0E4986
S11379B00C4909E0FFF79CFF014605E018688302C3
S11379C002D5114600E00021084610BD98C4010408
S11379D00C00004010000040000200408001004004
S11379E0F0FF01000024F4000048E8012DE9F04212
S11379F0950005F01C0C01259540D408ED43570073
S1137A00002907F01E0700F6180654D100EB840E77
S1137A104FF00709DEF8304809FA0CF924EA0904A2
S1137A20CEF8304803F00709DEF8304809FA0CFCB8
S1137A304CEA0404CEF8304814094FEA840C00EBF5
S1137A400C04D4F800E80324BC402EEA040E00EB36
S1137A500C048444C4F800E800EB8100D4F800E886
S1137A60C3F3011404FA07F747EA0E07CCF80078C9
S1137A70C3F38014D0F810782F40C0F810789440E5
S1137A80D0F810782743C0F8107891B9062A18BFA7
S1137A900B2A04D0132A1CBF1A2A1B2A09D13068C6
S1137AA005403560C3F3C011306801FA02F20243A5
S1137AB03260BDE8F0820129FBD1002A18BF012AF7
S1137AC04FF0080C0BD174682C40746003F001046F
S1137AD0D6F804E0944044EA0E047460AFE7022A46
S1137AE0E7D1746824F4803474601C04D6F804E08C
S1137AF004F48034EFE700BF0448016821F0770103
S1137B0041F0440101607047000000003808004063
S1137B1080B52023132200F019F8BDE8005020237B
S1137B2018224FE080B520230D2200F00FF8202307
S1137B30192200F00BF820231F2200F007F8BDE8FB
S1137B40005020230B223DE00523042200214FF0A6
S1137B5080404BE780B505230322FFF7F7FFFFF7CB
S1137B60F3FF05230522FFF7F1FFBDE800500423CE
S1137B701E2227E080B504230622FFF7E7FFBDE8B5
S1137B800050042307221DE020231B221AE00123B6
S1137B90082217E080B521230822FFF7D7FF152319
S1137BA0FFF7D3FF15230522FFF7D0FF002314228C
S1137BB0FFF7CCFF00231522FFF7C8FFBDE80050F4
S1137BC000230E2200214FF080400FE780B50123EF
S1137BD00822FFF7BBFFFFF7B7FFBDE800500523FE
S1137BE00522EFE780B500231422FFF7AFFFBDE8BD
S1137BF0005020231522E5E7416002600020704711
S1137C00F8B511F07F4F044615461E4601D00120F9
S1137C10F2BD03202072E172080C60720423080A8A
S1137C20A07200220020009004F108012068676817
S1137C30B84701200090334600F00EF80020F2BD52
S1137C407CB50446052000F00CF8012000900223C6
S1137C5000F002F8002076BD206864682A460021FE
S1137C60204720720D46002000900123206866689A
S1137C70002204F1080130471CB504460620207296
S1137C8004F10801012000900123206864680022A7
S1137C90A047002016BDFEB50C4614F07F4F0546E4
S1137CA016461F4607D1200601D00220FEBD40F231
S1137CB00110874201D30120FEBD2846FFF7DCFFF7
S1137CC001A92846FFF7BCFF9DF804008107F7D5FA
S1137CD0200C68720221200AA8722972EC7200201A
S1137CE00090042328686C68002205F10801A0476D
S1137CF0012000903B4628686C6800223146A0476A
S1137D0001A92846FFF79CFF9DF8040010F0030F1B
S1137D10F6D10020FEBD3EB504460D46FFF7ACFF8C
S1137D2001A92046FFF78CFF9DF804008107F7D5D1
S1137D30280C60722021280AA0722172E5720120A9
S1137D400090042320686568002204F10801A84714
S1137D5001A92046FFF774FF9DF8040010F0030FFB
S1137D60F6D100203EBDFEE72DE9F843064617464E
S1137D7084B088469946B80004F0A4FC05001AD0E3
S1137D80782004F09FFC040012D00D990C98256310
S1137D90002203920191009002944B463A464146D8
S1137DA0304600F00DF8204600F056F8012004E0BB
S1137DB0284604F010FD4FF0FF3005B0BDE8F08315
S1137DC02DE9F8430A9C80460D461746206B9946D8
S1137DD0A522B90004F0C8FA206B00EB87010F1F3D
S1137DE0FF0804F14806FF0037600021685C621850
S1137DF082F83400685C10B1491C1429F6D3089D3C
S1137E000020112D88BF112584F84700E562F56034
S1137E103061C5F11205201D0021016104F1180033
S1137E20002101612461A56164620020002104EB4A
S1137E308002401C0528D165F9D3099D0020B06259
S1137E4084F874004A464146384600F0FDFF20603D
S1137E5005B12C60BDE8F1832DE9F04100F067F82D
S1137E60DFF89C55DFF81486E86C401CE86414269F
S1137E70A86A28BBAC62E86C012829D1002706FB5C
S1137E8007F0404404F0F8FC7F1C122FF7D305F1EF
S1137E90740004F0F1FC05F18807384604F0ECFCAA
S1137EA0284604F0E9FC05F1140004F0E5FC05F1B2
S1137EB0380004F0E1FC05F17400E8622F6307E088
S1137EC0A86D28B9E16AA86AC26A914228BFAC6267
S1137ED0A86E401CA866E0640122E06A696D8240D5
S1137EE0114369654643211D08EB060004F0D1FCEB
S1137EF001F038F8A86D08B100F025FBBDE8F08169
S1137F0080B588B1DFF8F824116F21B100F012F8C0
S1137F1000F04CF9FEE7116F491C1167002100F0D5
S1137F2023FB00F044F808B900F03BF901BD044616
S1137F3000F0FFBF202080F311887047211D14201A
S1137F404243981870473EB5DFF884460FF28861C3
S1137F5004F19C0001900025009500235A220FF2A1
S1137F60F130FFF701FF012808BF04F0C9FC20210C
S1137F7001280ED181F3118800F018F94FF0FF3079
S1137F80E0660120A0652565BDE8374000F084BFA8
S1137F9037BD10F1010FFBD181F3118800F006F910
S1137FA0FEE7DFF82C06016F491C0167704770B5C6
S1137FB0DFF84C64306F0024002528B9202181F3B8
S1137FC0118800F0F3F8FEE700F0B3FF306F401EB5
S1137FD03067316F002937D1F06CD8B934E0F168DB
S1137FE0CC6800F032F800F067F9E06A716D0122A4
S1137FF08240114371651423DFF8D8255843211DAD
S1138000104404F046FCE06AB16ACA6A904224BF94
S11380100120306630680028E1D10CB100F0D2F9BB
S1138020F46D3CB100F019F808B101203066641E0B
S1138030F8D1F565306E38B1DFF890054FF0805116
S11380400125016000F0B2F879E204F1180004F0AF
S113805045BCDFF87C05006D7047F8B5DFF8A07308
S1138060386F0026002844D13C6D641C3C6511D156
S1138070F96A086828B1202282F3118800F096F882
S1138080FEE7F86A396BF9623863786E401C7866EB
S113809000F098F9F86E84422ED31CE0281D04F0F9
S11380A01DFCA86A18B105F1180004F017FCE86A71
S11380B0796D01228240114379651423DFF8142578
S11380C05843291D104404F0E4FBE86AB96ACA6AFB
S11380D0904228BF0126F96A086830B1F96AC86875
S11380E0C56868688442D9D201E04FF0FF30F86671
S11380F002E0F86D401CF865386E00B10126304688
S1138100F2BDDFF8FC1281B0086F10B101220A66DB
S113811020E00866DFF8BC34486DB0FA80F2C2F1A2
S11381201F0214204243985838B9202181F3118842
S1138130BFF34F8FBFF36F8FFEE7981800F108036A
S11381404268526842609A4204BF52684260406882
S1138150C2688A6201B0704710B50C4600F044F85A
S113816004F0A3FB2046BDE8104018E038B51446DF
S113817000F021F8DFF888522A6F22B983F31188BE
S113818000F014F8FEE7AA6A41F000419161AB6A7D
S113819003F1180104F07DFB2046BDE834400121C1
S11381A0E2E1DFF8C0134FF080500860BFF34F8F57
S11381B0BFF36F8F7047202330B983F31188BFF367
S11381C04F8FBFF36F8FFEE7704738B50D461446E7
S11381D000F00AF804F05DFB0CB14FF0FF352146C6
S11381E02846BDE83440BFE138B9202080F3118827
S11381F0BFF34F8FBFF36F8FFEE7DFF8D423936A8B
S113820003F11801704738B5C068C46824B9FFF792
S113821091FEFFF7CBFFFEE7FFF717FF784D286FBE
S113822060B900F049F8E26A686DDFF8A83301210B
S1138230914008436865FFF781FE02E004F11801EC
S1138240284604F026FBA86AC16AE06A814200D28B
S113825035E0002032BD38B5DFF874532A6F20238F
S113826022B983F31188FFF7A1FFFEE741F0004133
S11382700160C46824B983F31188FFF797FFFEE710
S113828004F02CFB00F018F800F008F8A96AC86A9A
S1138290E16A884200D212E0002032BDE26A686DD1
S11382A0DFF830330121914008436865211D142013
S11382B04243981804F0EDBA201D04F00FBB0120CE
S11382C0286632BD38B9202080F31188BFF34F8F60
S11382D0BFF36F8FFEE7DFF8F8124A6E0260096D94
S11382E04160704770B504460D46202024B980F3E0
S11382F01188FFF75BFFFEE725B980F31188FFF7CC
S113830055FFFEE700F015FEDFF8C402016D2A6890
S113831012F1010F0FD06368406E2668B04201D09D
S113832099420AD2C81A904207D2511A59182960A0
S11383302046FFF7C7FF002400E0012400F012FEEE
S1138340204670BDDFF888120120086670470000DF
S11383502DE9F041DFF80C52DFF82081284F4FF06F
S113836080561AE0386F401C38677869441EA4416F
S1138370FFF71DFEE40F84B900F0DBFD386AC46822
S1138380FFF79AFFF86C401EF864786B401E786320
S113839000F0E8FD204600F00BF8786B0028E1D1EE
S11383A0D8F800100129F8D92E60FFF7FFFEF4E792
S11383B010B50446206B04F00EFA2046BDE81040C8
S11383C004F009BA0E49CA6A106818B94FF0FF33AD
S11383D0CB667047C86AC268D0684268CA6670478C
S11383E0DFF8EC01806A7047DFF8E411886D08B9A2
S11383F001207047086F08B90220704700207047B9
S1138400A4BD01042DE9F041040035D0DFF8C051CA
S1138410E06AA96ACA6A90422ED2A069002804D4EC
S1138420A86AC16AC1F11201A1611427E16ADFF8E7
S1138430A48160697943414488421AD1FFF73CFF23
S11384400126002801BFE06A784358F8000000289C
S113845000F058F8A86AC06AE0628640696D0E436D
S11384606E654743211D08EB0700BDE8F04104F0A9
S113847010BAA86AC16AE162BDE8F08144BE010491
S11384802DE9F04104460021002C38D0DFF840519A
S1138490A86A2022844204D082F31188FFF786FE62
S11384A0FEE7A06D20B982F31188FFF77FFEFEE797
S11384B0E26A636D401E9A42A06520D0F8B9FFF7C6
S11384C0FBFE01261427DFF80C81002801BFE06AB7
S11384D0784358F80000002800F014F8606DE0625A
S11384E0C0F11200A061E06A696D86400E43474303
